{
  "_format": "hh-sol-artifact-1",
  "contractName": "UniswapLikeToken",
  "sourceName": "contracts/UniswapLikeToken.sol",
  "abi": [
    {
      "inputs": [
        {
          "internalType": "string",
          "name": "name_",
          "type": "string"
        },
        {
          "internalType": "string",
          "name": "symbol_",
          "type": "string"
        },
        {
          "internalType": "uint256",
          "name": "initialSupply_",
          "type": "uint256"
        },
        {
          "internalType": "uint8",
          "name": "decimals_",
          "type": "uint8"
        }
      ],
      "stateMutability": "nonpayable",
      "type": "constructor"
    },
    {
      "inputs": [],
      "name": "InvalidShortString",
      "type": "error"
    },
    {
      "inputs": [
        {
          "internalType": "string",
          "name": "str",
          "type": "string"
        }
      ],
      "name": "StringTooLong",
      "type": "error"
    },
    {
      "anonymous": false,
      "inputs": [
        {
          "indexed": true,
          "internalType": "address",
          "name": "owner",
          "type": "address"
        },
        {
          "indexed": true,
          "internalType": "address",
          "name": "spender",
          "type": "address"
        },
        {
          "indexed": false,
          "internalType": "uint256",
          "name": "value",
          "type": "uint256"
        }
      ],
      "name": "Approval",
      "type": "event"
    },
    {
      "anonymous": false,
      "inputs": [],
      "name": "EIP712DomainChanged",
      "type": "event"
    },
    {
      "anonymous": false,
      "inputs": [
        {
          "indexed": true,
          "internalType": "address",
          "name": "previousOwner",
          "type": "address"
        },
        {
          "indexed": true,
          "internalType": "address",
          "name": "newOwner",
          "type": "address"
        }
      ],
      "name": "OwnershipTransferred",
      "type": "event"
    },
    {
      "anonymous": false,
      "inputs": [
        {
          "indexed": false,
          "internalType": "address",
          "name": "account",
          "type": "address"
        }
      ],
      "name": "Paused",
      "type": "event"
    },
    {
      "anonymous": false,
      "inputs": [
        {
          "indexed": true,
          "internalType": "address",
          "name": "from",
          "type": "address"
        },
        {
          "indexed": true,
          "internalType": "address",
          "name": "to",
          "type": "address"
        },
        {
          "indexed": false,
          "internalType": "uint256",
          "name": "value",
          "type": "uint256"
        }
      ],
      "name": "Transfer",
      "type": "event"
    },
    {
      "anonymous": false,
      "inputs": [
        {
          "indexed": false,
          "internalType": "address",
          "name": "account",
          "type": "address"
        }
      ],
      "name": "Unpaused",
      "type": "event"
    },
    {
      "inputs": [],
      "name": "DOMAIN_SEPARATOR",
      "outputs": [
        {
          "internalType": "bytes32",
          "name": "",
          "type": "bytes32"
        }
      ],
      "stateMutability": "view",
      "type": "function"
    },
    {
      "inputs": [
        {
          "internalType": "address",
          "name": "owner",
          "type": "address"
        },
        {
          "internalType": "address",
          "name": "spender",
          "type": "address"
        }
      ],
      "name": "allowance",
      "outputs": [
        {
          "internalType": "uint256",
          "name": "",
          "type": "uint256"
        }
      ],
      "stateMutability": "view",
      "type": "function"
    },
    {
      "inputs": [
        {
          "internalType": "address",
          "name": "spender",
          "type": "address"
        },
        {
          "internalType": "uint256",
          "name": "amount",
          "type": "uint256"
        }
      ],
      "name": "approve",
      "outputs": [
        {
          "internalType": "bool",
          "name": "",
          "type": "bool"
        }
      ],
      "stateMutability": "nonpayable",
      "type": "function"
    },
    {
      "inputs": [
        {
          "internalType": "address",
          "name": "account",
          "type": "address"
        }
      ],
      "name": "balanceOf",
      "outputs": [
        {
          "internalType": "uint256",
          "name": "",
          "type": "uint256"
        }
      ],
      "stateMutability": "view",
      "type": "function"
    },
    {
      "inputs": [
        {
          "internalType": "uint256",
          "name": "amount",
          "type": "uint256"
        }
      ],
      "name": "burn",
      "outputs": [],
      "stateMutability": "nonpayable",
      "type": "function"
    },
    {
      "inputs": [
        {
          "internalType": "address",
          "name": "account",
          "type": "address"
        },
        {
          "internalType": "uint256",
          "name": "amount",
          "type": "uint256"
        }
      ],
      "name": "burnFrom",
      "outputs": [],
      "stateMutability": "nonpayable",
      "type": "function"
    },
    {
      "inputs": [],
      "name": "decimals",
      "outputs": [
        {
          "internalType": "uint8",
          "name": "",
          "type": "uint8"
        }
      ],
      "stateMutability": "view",
      "type": "function"
    },
    {
      "inputs": [
        {
          "internalType": "address",
          "name": "spender",
          "type": "address"
        },
        {
          "internalType": "uint256",
          "name": "subtractedValue",
          "type": "uint256"
        }
      ],
      "name": "decreaseAllowance",
      "outputs": [
        {
          "internalType": "bool",
          "name": "",
          "type": "bool"
        }
      ],
      "stateMutability": "nonpayable",
      "type": "function"
    },
    {
      "inputs": [],
      "name": "eip712Domain",
      "outputs": [
        {
          "internalType": "bytes1",
          "name": "fields",
          "type": "bytes1"
        },
        {
          "internalType": "string",
          "name": "name",
          "type": "string"
        },
        {
          "internalType": "string",
          "name": "version",
          "type": "string"
        },
        {
          "internalType": "uint256",
          "name": "chainId",
          "type": "uint256"
        },
        {
          "internalType": "address",
          "name": "verifyingContract",
          "type": "address"
        },
        {
          "internalType": "bytes32",
          "name": "salt",
          "type": "bytes32"
        },
        {
          "internalType": "uint256[]",
          "name": "extensions",
          "type": "uint256[]"
        }
      ],
      "stateMutability": "view",
      "type": "function"
    },
    {
      "inputs": [
        {
          "internalType": "address",
          "name": "spender",
          "type": "address"
        },
        {
          "internalType": "uint256",
          "name": "addedValue",
          "type": "uint256"
        }
      ],
      "name": "increaseAllowance",
      "outputs": [
        {
          "internalType": "bool",
          "name": "",
          "type": "bool"
        }
      ],
      "stateMutability": "nonpayable",
      "type": "function"
    },
    {
      "inputs": [
        {
          "internalType": "address",
          "name": "to",
          "type": "address"
        },
        {
          "internalType": "uint256",
          "name": "amount",
          "type": "uint256"
        }
      ],
      "name": "mint",
      "outputs": [],
      "stateMutability": "nonpayable",
      "type": "function"
    },
    {
      "inputs": [],
      "name": "name",
      "outputs": [
        {
          "internalType": "string",
          "name": "",
          "type": "string"
        }
      ],
      "stateMutability": "view",
      "type": "function"
    },
    {
      "inputs": [
        {
          "internalType": "address",
          "name": "owner",
          "type": "address"
        }
      ],
      "name": "nonces",
      "outputs": [
        {
          "internalType": "uint256",
          "name": "",
          "type": "uint256"
        }
      ],
      "stateMutability": "view",
      "type": "function"
    },
    {
      "inputs": [],
      "name": "owner",
      "outputs": [
        {
          "internalType": "address",
          "name": "",
          "type": "address"
        }
      ],
      "stateMutability": "view",
      "type": "function"
    },
    {
      "inputs": [],
      "name": "pause",
      "outputs": [],
      "stateMutability": "nonpayable",
      "type": "function"
    },
    {
      "inputs": [],
      "name": "paused",
      "outputs": [
        {
          "internalType": "bool",
          "name": "",
          "type": "bool"
        }
      ],
      "stateMutability": "view",
      "type": "function"
    },
    {
      "inputs": [
        {
          "internalType": "address",
          "name": "owner",
          "type": "address"
        },
        {
          "internalType": "address",
          "name": "spender",
          "type": "address"
        },
        {
          "internalType": "uint256",
          "name": "value",
          "type": "uint256"
        },
        {
          "internalType": "uint256",
          "name": "deadline",
          "type": "uint256"
        },
        {
          "internalType": "uint8",
          "name": "v",
          "type": "uint8"
        },
        {
          "internalType": "bytes32",
          "name": "r",
          "type": "bytes32"
        },
        {
          "internalType": "bytes32",
          "name": "s",
          "type": "bytes32"
        }
      ],
      "name": "permit",
      "outputs": [],
      "stateMutability": "nonpayable",
      "type": "function"
    },
    {
      "inputs": [],
      "name": "renounceOwnership",
      "outputs": [],
      "stateMutability": "nonpayable",
      "type": "function"
    },
    {
      "inputs": [],
      "name": "symbol",
      "outputs": [
        {
          "internalType": "string",
          "name": "",
          "type": "string"
        }
      ],
      "stateMutability": "view",
      "type": "function"
    },
    {
      "inputs": [],
      "name": "totalSupply",
      "outputs": [
        {
          "internalType": "uint256",
          "name": "",
          "type": "uint256"
        }
      ],
      "stateMutability": "view",
      "type": "function"
    },
    {
      "inputs": [
        {
          "internalType": "address",
          "name": "to",
          "type": "address"
        },
        {
          "internalType": "uint256",
          "name": "amount",
          "type": "uint256"
        }
      ],
      "name": "transfer",
      "outputs": [
        {
          "internalType": "bool",
          "name": "",
          "type": "bool"
        }
      ],
      "stateMutability": "nonpayable",
      "type": "function"
    },
    {
      "inputs": [
        {
          "internalType": "address",
          "name": "from",
          "type": "address"
        },
        {
          "internalType": "address",
          "name": "to",
          "type": "address"
        },
        {
          "internalType": "uint256",
          "name": "amount",
          "type": "uint256"
        }
      ],
      "name": "transferFrom",
      "outputs": [
        {
          "internalType": "bool",
          "name": "",
          "type": "bool"
        }
      ],
      "stateMutability": "nonpayable",
      "type": "function"
    },
    {
      "inputs": [
        {
          "internalType": "address",
          "name": "newOwner",
          "type": "address"
        }
      ],
      "name": "transferOwnership",
      "outputs": [],
      "stateMutability": "nonpayable",
      "type": "function"
    },
    {
      "inputs": [],
      "name": "unpause",
      "outputs": [],
      "stateMutability": "nonpayable",
      "type": "function"
    }
  ],
  "bytecode": "0x6101806040523480156200001257600080fd5b506040516200406e3803806200406e8339818101604052810190620000389190620007cf565b83806040518060400160405280600181526020017f31000000000000000000000000000000000000000000000000000000000000008152508686816003908162000083919062000ac0565b50806004908162000095919062000ac0565b505050620000ae600583620001d060201b90919060201c565b6101208181525050620000cc600682620001d060201b90919060201c565b6101408181525050818051906020012060e08181525050808051906020012061010081815250504660a081815250506200010b6200022860201b60201c565b608081815250503073ffffffffffffffffffffffffffffffffffffffff1660c08173ffffffffffffffffffffffffffffffffffffffff16815250505050506000600960006101000a81548160ff02191690831515021790555062000184620001786200028560201b60201c565b6200028d60201b60201c565b8060ff166101608160ff1681525050620001c6336101605160ff16600a620001ad919062000d2a565b84620001ba919062000d7b565b6200035360201b60201c565b505050506200110e565b6000602083511015620001f657620001ee83620004c060201b60201c565b905062000222565b8262000208836200052d60201b60201c565b600001908162000219919062000ac0565b5060ff60001b90505b92915050565b60007f8b73c3c69bb8fe3d512ecc4cf759cc79239f7b179b0ffacaa9a75d522b39400f60e0516101005146306040516020016200026a95949392919062000e37565b60405160208183030381529060405280519060200120905090565b600033905090565b6000600960019054906101000a900473ffffffffffffffffffffffffffffffffffffffff16905081600960016101000a81548173ffffffffffffffffffffffffffffffffffffffff021916908373ffffffffffffffffffffffffffffffffffffffff1602179055508173ffffffffffffffffffffffffffffffffffffffff168173ffffffffffffffffffffffffffffffffffffffff167f8be0079c531659141344cd1fd0a4f28419497f9722a3daafe3b4186f6b6457e060405160405180910390a35050565b600073ffffffffffffffffffffffffffffffffffffffff168273ffffffffffffffffffffffffffffffffffffffff1603620003c5576040517f08c379a0000000000000000000000000000000000000000000000000000000008152600401620003bc9062000ef5565b60405180910390fd5b620003d9600083836200053760201b60201c565b8060026000828254620003ed919062000f17565b92505081905550806000808473ffffffffffffffffffffffffffffffffffffffff1673ffffffffffffffffffffffffffffffffffffffff168152602001908152602001600020600082825401925050819055508173ffffffffffffffffffffffffffffffffffffffff16600073ffffffffffffffffffffffffffffffffffffffff167fddf252ad1be2c89b69c2b068fc378daa952ba7f163c4a11628f55a4df523b3ef83604051620004a0919062000f52565b60405180910390a3620004bc60008383620005a260201b60201c565b5050565b600080829050601f815111156200051057826040517f305a27a900000000000000000000000000000000000000000000000000000000815260040162000507919062000fb0565b60405180910390fd5b8051816200051e9062001006565b60001c1760001b915050919050565b6000819050919050565b6200054a838383620005a760201b60201c565b6200055a620005ac60201b60201c565b156200059d576040517f08c379a00000000000000000000000000000000000000000000000000000000081526004016200059490620010ec565b60405180910390fd5b505050565b505050565b505050565b6000600960009054906101000a900460ff16905090565b6000604051905090565b600080fd5b600080fd5b600080fd5b600080fd5b6000601f19601f8301169050919050565b7f4e487b7100000000000000000000000000000000000000000000000000000000600052604160045260246000fd5b6200062c82620005e1565b810181811067ffffffffffffffff821117156200064e576200064d620005f2565b5b80604052505050565b600062000663620005c3565b905062000671828262000621565b919050565b600067ffffffffffffffff821115620006945762000693620005f2565b5b6200069f82620005e1565b9050602081019050919050565b60005b83811015620006cc578082015181840152602081019050620006af565b60008484015250505050565b6000620006ef620006e98462000676565b62000657565b9050828152602081018484840111156200070e576200070d620005dc565b5b6200071b848285620006ac565b509392505050565b600082601f8301126200073b576200073a620005d7565b5b81516200074d848260208601620006d8565b91505092915050565b6000819050919050565b6200076b8162000756565b81146200077757600080fd5b50565b6000815190506200078b8162000760565b92915050565b600060ff82169050919050565b620007a98162000791565b8114620007b557600080fd5b50565b600081519050620007c9816200079e565b92915050565b60008060008060808587031215620007ec57620007eb620005cd565b5b600085015167ffffffffffffffff8111156200080d576200080c620005d2565b5b6200081b8782880162000723565b945050602085015167ffffffffffffffff8111156200083f576200083e620005d2565b5b6200084d8782880162000723565b935050604062000860878288016200077a565b92505060606200087387828801620007b8565b91505092959194509250565b600081519050919050565b7f4e487b7100000000000000000000000000000000000000000000000000000000600052602260045260246000fd5b60006002820490506001821680620008d257607f821691505b602082108103620008e857620008e76200088a565b5b50919050565b60008190508160005260206000209050919050565b60006020601f8301049050919050565b600082821b905092915050565b600060088302620009527fffffffffffffffffffffffffffffffffffffffffffffffffffffffffffffffff8262000913565b6200095e868362000913565b95508019841693508086168417925050509392505050565b6000819050919050565b6000620009a16200099b620009958462000756565b62000976565b62000756565b9050919050565b6000819050919050565b620009bd8362000980565b620009d5620009cc82620009a8565b84845462000920565b825550505050565b600090565b620009ec620009dd565b620009f9818484620009b2565b505050565b5b8181101562000a215762000a15600082620009e2565b600181019050620009ff565b5050565b601f82111562000a705762000a3a81620008ee565b62000a458462000903565b8101602085101562000a55578190505b62000a6d62000a648562000903565b830182620009fe565b50505b505050565b600082821c905092915050565b600062000a956000198460080262000a75565b1980831691505092915050565b600062000ab0838362000a82565b9150826002028217905092915050565b62000acb826200087f565b67ffffffffffffffff81111562000ae75762000ae6620005f2565b5b62000af38254620008b9565b62000b0082828562000a25565b600060209050601f83116001811462000b38576000841562000b23578287015190505b62000b2f858262000aa2565b86555062000b9f565b601f19841662000b4886620008ee565b60005b8281101562000b725784890151825560018201915060208501945060208101905062000b4b565b8683101562000b92578489015162000b8e601f89168262000a82565b8355505b6001600288020188555050505b505050505050565b7f4e487b7100000000000000000000000000000000000000000000000000000000600052601160045260246000fd5b60008160011c9050919050565b6000808291508390505b600185111562000c355780860481111562000c0d5762000c0c62000ba7565b5b600185161562000c1d5780820291505b808102905062000c2d8562000bd6565b945062000bed565b94509492505050565b60008262000c50576001905062000d23565b8162000c60576000905062000d23565b816001811462000c79576002811462000c845762000cba565b600191505062000d23565b60ff84111562000c995762000c9862000ba7565b5b8360020a91508482111562000cb35762000cb262000ba7565b5b5062000d23565b5060208310610133831016604e8410600b841016171562000cf45782820a90508381111562000cee5762000ced62000ba7565b5b62000d23565b62000d03848484600162000be3565b9250905081840481111562000d1d5762000d1c62000ba7565b5b81810290505b9392505050565b600062000d378262000756565b915062000d448362000756565b925062000d737fffffffffffffffffffffffffffffffffffffffffffffffffffffffffffffffff848462000c3e565b905092915050565b600062000d888262000756565b915062000d958362000756565b925082820262000da58162000756565b9150828204841483151762000dbf5762000dbe62000ba7565b5b5092915050565b6000819050919050565b62000ddb8162000dc6565b82525050565b62000dec8162000756565b82525050565b600073ffffffffffffffffffffffffffffffffffffffff82169050919050565b600062000e1f8262000df2565b9050919050565b62000e318162000e12565b82525050565b600060a08201905062000e4e600083018862000dd0565b62000e5d602083018762000dd0565b62000e6c604083018662000dd0565b62000e7b606083018562000de1565b62000e8a608083018462000e26565b9695505050505050565b600082825260208201905092915050565b7f45524332303a206d696e7420746f20746865207a65726f206164647265737300600082015250565b600062000edd601f8362000e94565b915062000eea8262000ea5565b602082019050919050565b6000602082019050818103600083015262000f108162000ece565b9050919050565b600062000f248262000756565b915062000f318362000756565b925082820190508082111562000f4c5762000f4b62000ba7565b5b92915050565b600060208201905062000f69600083018462000de1565b92915050565b600062000f7c826200087f565b62000f88818562000e94565b935062000f9a818560208601620006ac565b62000fa581620005e1565b840191505092915050565b6000602082019050818103600083015262000fcc818462000f6f565b905092915050565b600081519050919050565b6000819050602082019050919050565b600062000ffd825162000dc6565b80915050919050565b6000620010138262000fd4565b826200101f8462000fdf565b90506200102c8162000fef565b925060208210156200106f576200106a7fffffffffffffffffffffffffffffffffffffffffffffffffffffffffffffffff8360200360080262000913565b831692505b5050919050565b7f45524332305061757361626c653a20746f6b656e207472616e7366657220776860008201527f696c652070617573656400000000000000000000000000000000000000000000602082015250565b6000620010d4602a8362000e94565b9150620010e18262001076565b604082019050919050565b600060208201905081810360008301526200110781620010c5565b9050919050565b60805160a05160c05160e05161010051610120516101405161016051612efa62001174600039600061056f015260006107510152600061071d015260006118690152600061184801526000611085015260006110db015260006111040152612efa6000f3fe608060405234801561001057600080fd5b50600436106101585760003560e01c8063715018a6116100c357806395d89b411161007c57806395d89b4114610397578063a457c2d7146103b5578063a9059cbb146103e5578063d505accf14610415578063dd62ed3e14610431578063f2fde38b1461046157610158565b8063715018a6146102f557806379cc6790146102ff5780637ecebe001461031b5780638456cb591461034b57806384b0196e146103555780638da5cb5b1461037957610158565b8063395093511161011557806339509351146102355780633f4ba83a1461026557806340c10f191461026f57806342966c681461028b5780635c975abb146102a757806370a08231146102c557610158565b806306fdde031461015d578063095ea7b31461017b57806318160ddd146101ab57806323b872dd146101c9578063313ce567146101f95780633644e51514610217575b600080fd5b61016561047d565b6040516101729190611d44565b60405180910390f35b61019560048036038101906101909190611dff565b61050f565b6040516101a29190611e5a565b60405180910390f35b6101b3610532565b6040516101c09190611e84565b60405180910390f35b6101e360048036038101906101de9190611e9f565b61053c565b6040516101f09190611e5a565b60405180910390f35b61020161056b565b60405161020e9190611f0e565b60405180910390f35b61021f610593565b60405161022c9190611f42565b60405180910390f35b61024f600480360381019061024a9190611dff565b6105a2565b60405161025c9190611e5a565b60405180910390f35b61026d6105d9565b005b61028960048036038101906102849190611dff565b6105eb565b005b6102a560048036038101906102a09190611f5d565b610601565b005b6102af610615565b6040516102bc9190611e5a565b60405180910390f35b6102df60048036038101906102da9190611f8a565b61062c565b6040516102ec9190611e84565b60405180910390f35b6102fd610674565b005b61031960048036038101906103149190611dff565b610688565b005b61033560048036038101906103309190611f8a565b6106a8565b6040516103429190611e84565b60405180910390f35b6103536106f8565b005b61035d61070a565b60405161037097969594939291906120bf565b60405180910390f35b61038161080c565b60405161038e9190612143565b60405180910390f35b61039f610836565b6040516103ac9190611d44565b60405180910390f35b6103cf60048036038101906103ca9190611dff565b6108c8565b6040516103dc9190611e5a565b60405180910390f35b6103ff60048036038101906103fa9190611dff565b61093f565b60405161040c9190611e5a565b60405180910390f35b61042f600480360381019061042a91906121b6565b610962565b005b61044b60048036038101906104469190612258565b610aa4565b6040516104589190611e84565b60405180910390f35b61047b60048036038101906104769190611f8a565b610b2b565b005b60606003805461048c906122c7565b80601f01602080910402602001604051908101604052809291908181526020018280546104b8906122c7565b80156105055780601f106104da57610100808354040283529160200191610505565b820191906000526020600020905b8154815290600101906020018083116104e857829003601f168201915b5050505050905090565b60008061051a610bae565b9050610527818585610bb6565b600191505092915050565b6000600254905090565b600080610547610bae565b9050610554858285610d7f565b61055f858585610e0b565b60019150509392505050565b60007f0000000000000000000000000000000000000000000000000000000000000000905090565b600061059d611081565b905090565b6000806105ad610bae565b90506105ce8185856105bf8589610aa4565b6105c99190612327565b610bb6565b600191505092915050565b6105e1611138565b6105e96111b6565b565b6105f3611138565b6105fd8282611219565b5050565b61061261060c610bae565b8261136f565b50565b6000600960009054906101000a900460ff16905090565b60008060008373ffffffffffffffffffffffffffffffffffffffff1673ffffffffffffffffffffffffffffffffffffffff168152602001908152602001600020549050919050565b61067c611138565b610686600061153c565b565b61069a82610694610bae565b83610d7f565b6106a4828261136f565b5050565b60006106f1600760008473ffffffffffffffffffffffffffffffffffffffff1673ffffffffffffffffffffffffffffffffffffffff168152602001908152602001600020611602565b9050919050565b610700611138565b610708611610565b565b60006060806000806000606061074a60057f000000000000000000000000000000000000000000000000000000000000000061167390919063ffffffff16565b61077e60067f000000000000000000000000000000000000000000000000000000000000000061167390919063ffffffff16565b46306000801b600067ffffffffffffffff81111561079f5761079e61235b565b5b6040519080825280602002602001820160405280156107cd5781602001602082028036833780820191505090505b507f0f00000000000000000000000000000000000000000000000000000000000000959493929190965096509650965096509650965090919293949596565b6000600960019054906101000a900473ffffffffffffffffffffffffffffffffffffffff16905090565b606060048054610845906122c7565b80601f0160208091040260200160405190810160405280929190818152602001828054610871906122c7565b80156108be5780601f10610893576101008083540402835291602001916108be565b820191906000526020600020905b8154815290600101906020018083116108a157829003601f168201915b5050505050905090565b6000806108d3610bae565b905060006108e18286610aa4565b905083811015610926576040517f08c379a000000000000000000000000000000000000000000000000000000000815260040161091d906123fc565b60405180910390fd5b6109338286868403610bb6565b60019250505092915050565b60008061094a610bae565b9050610957818585610e0b565b600191505092915050565b834211156109a5576040517f08c379a000000000000000000000000000000000000000000000000000000000815260040161099c90612468565b60405180910390fd5b60007f6e71edae12b1b97f4d1f60370fef10105fa2faae0126114a169c64845d6126c98888886109d48c611723565b896040516020016109ea96959493929190612488565b6040516020818303038152906040528051906020012090506000610a0d82611781565b90506000610a1d8287878761179b565b90508973ffffffffffffffffffffffffffffffffffffffff168173ffffffffffffffffffffffffffffffffffffffff1614610a8d576040517f08c379a0000000000000000000000000000000000000000000000000000000008152600401610a8490612535565b60405180910390fd5b610a988a8a8a610bb6565b50505050505050505050565b6000600160008473ffffffffffffffffffffffffffffffffffffffff1673ffffffffffffffffffffffffffffffffffffffff16815260200190815260200160002060008373ffffffffffffffffffffffffffffffffffffffff1673ffffffffffffffffffffffffffffffffffffffff16815260200190815260200160002054905092915050565b610b33611138565b600073ffffffffffffffffffffffffffffffffffffffff168173ffffffffffffffffffffffffffffffffffffffff1603610ba2576040517f08c379a0000000000000000000000000000000000000000000000000000000008152600401610b99906125c7565b60405180910390fd5b610bab8161153c565b50565b600033905090565b600073ffffffffffffffffffffffffffffffffffffffff168373ffffffffffffffffffffffffffffffffffffffff1603610c25576040517f08c379a0000000000000000000000000000000000000000000000000000000008152600401610c1c90612659565b60405180910390fd5b600073ffffffffffffffffffffffffffffffffffffffff168273ffffffffffffffffffffffffffffffffffffffff1603610c94576040517f08c379a0000000000000000000000000000000000000000000000000000000008152600401610c8b906126eb565b60405180910390fd5b80600160008573ffffffffffffffffffffffffffffffffffffffff1673ffffffffffffffffffffffffffffffffffffffff16815260200190815260200160002060008473ffffffffffffffffffffffffffffffffffffffff1673ffffffffffffffffffffffffffffffffffffffff168152602001908152602001600020819055508173ffffffffffffffffffffffffffffffffffffffff168373ffffffffffffffffffffffffffffffffffffffff167f8c5be1e5ebec7d5bd14f71427d1e84f3dd0314c0f7b2291e5b200ac8c7c3b92583604051610d729190611e84565b60405180910390a3505050565b6000610d8b8484610aa4565b90507fffffffffffffffffffffffffffffffffffffffffffffffffffffffffffffffff8114610e055781811015610df7576040517f08c379a0000000000000000000000000000000000000000000000000000000008152600401610dee90612757565b60405180910390fd5b610e048484848403610bb6565b5b50505050565b600073ffffffffffffffffffffffffffffffffffffffff168373ffffffffffffffffffffffffffffffffffffffff1603610e7a576040517f08c379a0000000000000000000000000000000000000000000000000000000008152600401610e71906127e9565b60405180910390fd5b600073ffffffffffffffffffffffffffffffffffffffff168273ffffffffffffffffffffffffffffffffffffffff1603610ee9576040517f08c379a0000000000000000000000000000000000000000000000000000000008152600401610ee09061287b565b60405180910390fd5b610ef48383836117c6565b60008060008573ffffffffffffffffffffffffffffffffffffffff1673ffffffffffffffffffffffffffffffffffffffff16815260200190815260200160002054905081811015610f7a576040517f08c379a0000000000000000000000000000000000000000000000000000000008152600401610f719061290d565b60405180910390fd5b8181036000808673ffffffffffffffffffffffffffffffffffffffff1673ffffffffffffffffffffffffffffffffffffffff16815260200190815260200160002081905550816000808573ffffffffffffffffffffffffffffffffffffffff1673ffffffffffffffffffffffffffffffffffffffff168152602001908152602001600020600082825401925050819055508273ffffffffffffffffffffffffffffffffffffffff168473ffffffffffffffffffffffffffffffffffffffff167fddf252ad1be2c89b69c2b068fc378daa952ba7f163c4a11628f55a4df523b3ef846040516110689190611e84565b60405180910390a361107b84848461181e565b50505050565b60007f000000000000000000000000000000000000000000000000000000000000000073ffffffffffffffffffffffffffffffffffffffff163073ffffffffffffffffffffffffffffffffffffffff161480156110fd57507f000000000000000000000000000000000000000000000000000000000000000046145b1561112a577f00000000000000000000000000000000000000000000000000000000000000009050611135565b611132611823565b90505b90565b611140610bae565b73ffffffffffffffffffffffffffffffffffffffff1661115e61080c565b73ffffffffffffffffffffffffffffffffffffffff16146111b4576040517f08c379a00000000000000000000000000000000000000000000000000000000081526004016111ab90612979565b60405180910390fd5b565b6111be6118b9565b6000600960006101000a81548160ff0219169083151502179055507f5db9ee0a495bf2e6ff9c91a7834c1ba4fdd244a5e8aa4e537bd38aeae4b073aa611202610bae565b60405161120f9190612143565b60405180910390a1565b600073ffffffffffffffffffffffffffffffffffffffff168273ffffffffffffffffffffffffffffffffffffffff1603611288576040517f08c379a000000000000000000000000000000000000000000000000000000000815260040161127f906129e5565b60405180910390fd5b611294600083836117c6565b80600260008282546112a69190612327565b92505081905550806000808473ffffffffffffffffffffffffffffffffffffffff1673ffffffffffffffffffffffffffffffffffffffff168152602001908152602001600020600082825401925050819055508173ffffffffffffffffffffffffffffffffffffffff16600073ffffffffffffffffffffffffffffffffffffffff167fddf252ad1be2c89b69c2b068fc378daa952ba7f163c4a11628f55a4df523b3ef836040516113579190611e84565b60405180910390a361136b6000838361181e565b5050565b600073ffffffffffffffffffffffffffffffffffffffff168273ffffffffffffffffffffffffffffffffffffffff16036113de576040517f08c379a00000000000000000000000000000000000000000000000000000000081526004016113d590612a77565b60405180910390fd5b6113ea826000836117c6565b60008060008473ffffffffffffffffffffffffffffffffffffffff1673ffffffffffffffffffffffffffffffffffffffff16815260200190815260200160002054905081811015611470576040517f08c379a000000000000000000000000000000000000000000000000000000000815260040161146790612b09565b60405180910390fd5b8181036000808573ffffffffffffffffffffffffffffffffffffffff1673ffffffffffffffffffffffffffffffffffffffff1681526020019081526020016000208190555081600260008282540392505081905550600073ffffffffffffffffffffffffffffffffffffffff168373ffffffffffffffffffffffffffffffffffffffff167fddf252ad1be2c89b69c2b068fc378daa952ba7f163c4a11628f55a4df523b3ef846040516115239190611e84565b60405180910390a36115378360008461181e565b505050565b6000600960019054906101000a900473ffffffffffffffffffffffffffffffffffffffff16905081600960016101000a81548173ffffffffffffffffffffffffffffffffffffffff021916908373ffffffffffffffffffffffffffffffffffffffff1602179055508173ffffffffffffffffffffffffffffffffffffffff168173ffffffffffffffffffffffffffffffffffffffff167f8be0079c531659141344cd1fd0a4f28419497f9722a3daafe3b4186f6b6457e060405160405180910390a35050565b600081600001549050919050565b611618611902565b6001600960006101000a81548160ff0219169083151502179055507f62e78cea01bee320cd4e420270b5ea74000d11b0c9f74754ebdbfc544b05a25861165c610bae565b6040516116699190612143565b60405180910390a1565b606060ff60001b8314611690576116898361194c565b905061171d565b81805461169c906122c7565b80601f01602080910402602001604051908101604052809291908181526020018280546116c8906122c7565b80156117155780601f106116ea57610100808354040283529160200191611715565b820191906000526020600020905b8154815290600101906020018083116116f857829003601f168201915b505050505090505b92915050565b600080600760008473ffffffffffffffffffffffffffffffffffffffff1673ffffffffffffffffffffffffffffffffffffffff168152602001908152602001600020905061177081611602565b915061177b816119c0565b50919050565b600061179461178e611081565b836119d6565b9050919050565b60008060006117ac87878787611a17565b915091506117b981611af9565b8192505050949350505050565b6117d1838383611c5f565b6117d9610615565b15611819576040517f08c379a000000000000000000000000000000000000000000000000000000000815260040161181090612b9b565b60405180910390fd5b505050565b505050565b60007f8b73c3c69bb8fe3d512ecc4cf759cc79239f7b179b0ffacaa9a75d522b39400f7f00000000000000000000000000000000000000000000000000000000000000007f0000000000000000000000000000000000000000000000000000000000000000463060405160200161189e959493929190612bbb565b60405160208183030381529060405280519060200120905090565b6118c1610615565b611900576040517f08c379a00000000000000000000000000000000000000000000000000000000081526004016118f790612c5a565b60405180910390fd5b565b61190a610615565b1561194a576040517f08c379a000000000000000000000000000000000000000000000000000000000815260040161194190612cc6565b60405180910390fd5b565b6060600061195983611c64565b90506000602067ffffffffffffffff8111156119785761197761235b565b5b6040519080825280601f01601f1916602001820160405280156119aa5781602001600182028036833780820191505090505b5090508181528360208201528092505050919050565b6001816000016000828254019250508190555050565b60006040517f190100000000000000000000000000000000000000000000000000000000000081528360028201528260228201526042812091505092915050565b6000807f7fffffffffffffffffffffffffffffff5d576e7357a4501ddfe92f46681b20a08360001c1115611a52576000600391509150611af0565b600060018787878760405160008152602001604052604051611a779493929190612ce6565b6020604051602081039080840390855afa158015611a99573d6000803e3d6000fd5b505050602060405103519050600073ffffffffffffffffffffffffffffffffffffffff168173ffffffffffffffffffffffffffffffffffffffff1603611ae757600060019250925050611af0565b80600092509250505b94509492505050565b60006004811115611b0d57611b0c612d2b565b5b816004811115611b2057611b1f612d2b565b5b0315611c5c5760016004811115611b3a57611b39612d2b565b5b816004811115611b4d57611b4c612d2b565b5b03611b8d576040517f08c379a0000000000000000000000000000000000000000000000000000000008152600401611b8490612da6565b60405180910390fd5b60026004811115611ba157611ba0612d2b565b5b816004811115611bb457611bb3612d2b565b5b03611bf4576040517f08c379a0000000000000000000000000000000000000000000000000000000008152600401611beb90612e12565b60405180910390fd5b60036004811115611c0857611c07612d2b565b5b816004811115611c1b57611c1a612d2b565b5b03611c5b576040517f08c379a0000000000000000000000000000000000000000000000000000000008152600401611c5290612ea4565b60405180910390fd5b5b50565b505050565b60008060ff8360001c169050601f811115611cab576040517fb3512b0c00000000000000000000000000000000000000000000000000000000815260040160405180910390fd5b80915050919050565b600081519050919050565b600082825260208201905092915050565b60005b83811015611cee578082015181840152602081019050611cd3565b60008484015250505050565b6000601f19601f8301169050919050565b6000611d1682611cb4565b611d208185611cbf565b9350611d30818560208601611cd0565b611d3981611cfa565b840191505092915050565b60006020820190508181036000830152611d5e8184611d0b565b905092915050565b600080fd5b600073ffffffffffffffffffffffffffffffffffffffff82169050919050565b6000611d9682611d6b565b9050919050565b611da681611d8b565b8114611db157600080fd5b50565b600081359050611dc381611d9d565b92915050565b6000819050919050565b611ddc81611dc9565b8114611de757600080fd5b50565b600081359050611df981611dd3565b92915050565b60008060408385031215611e1657611e15611d66565b5b6000611e2485828601611db4565b9250506020611e3585828601611dea565b9150509250929050565b60008115159050919050565b611e5481611e3f565b82525050565b6000602082019050611e6f6000830184611e4b565b92915050565b611e7e81611dc9565b82525050565b6000602082019050611e996000830184611e75565b92915050565b600080600060608486031215611eb857611eb7611d66565b5b6000611ec686828701611db4565b9350506020611ed786828701611db4565b9250506040611ee886828701611dea565b9150509250925092565b600060ff82169050919050565b611f0881611ef2565b82525050565b6000602082019050611f236000830184611eff565b92915050565b6000819050919050565b611f3c81611f29565b82525050565b6000602082019050611f576000830184611f33565b92915050565b600060208284031215611f7357611f72611d66565b5b6000611f8184828501611dea565b91505092915050565b600060208284031215611fa057611f9f611d66565b5b6000611fae84828501611db4565b91505092915050565b60007fff0000000000000000000000000000000000000000000000000000000000000082169050919050565b611fec81611fb7565b82525050565b611ffb81611d8b565b82525050565b600081519050919050565b600082825260208201905092915050565b6000819050602082019050919050565b61203681611dc9565b82525050565b6000612048838361202d565b60208301905092915050565b6000602082019050919050565b600061206c82612001565b612076818561200c565b93506120818361201d565b8060005b838110156120b2578151612099888261203c565b97506120a483612054565b925050600181019050612085565b5085935050505092915050565b600060e0820190506120d4600083018a611fe3565b81810360208301526120e68189611d0b565b905081810360408301526120fa8188611d0b565b90506121096060830187611e75565b6121166080830186611ff2565b61212360a0830185611f33565b81810360c08301526121358184612061565b905098975050505050505050565b60006020820190506121586000830184611ff2565b92915050565b61216781611ef2565b811461217257600080fd5b50565b6000813590506121848161215e565b92915050565b61219381611f29565b811461219e57600080fd5b50565b6000813590506121b08161218a565b92915050565b600080600080600080600060e0888a0312156121d5576121d4611d66565b5b60006121e38a828b01611db4565b97505060206121f48a828b01611db4565b96505060406122058a828b01611dea565b95505060606122168a828b01611dea565b94505060806122278a828b01612175565b93505060a06122388a828b016121a1565b92505060c06122498a828b016121a1565b91505092959891949750929550565b6000806040838503121561226f5761226e611d66565b5b600061227d85828601611db4565b925050602061228e85828601611db4565b9150509250929050565b7f4e487b7100000000000000000000000000000000000000000000000000000000600052602260045260246000fd5b600060028204905060018216806122df57607f821691505b6020821081036122f2576122f1612298565b5b50919050565b7f4e487b7100000000000000000000000000000000000000000000000000000000600052601160045260246000fd5b600061233282611dc9565b915061233d83611dc9565b9250828201905080821115612355576123546122f8565b5b92915050565b7f4e487b7100000000000000000000000000000000000000000000000000000000600052604160045260246000fd5b7f45524332303a2064656372656173656420616c6c6f77616e63652062656c6f7760008201527f207a65726f000000000000000000000000000000000000000000000000000000602082015250565b60006123e6602583611cbf565b91506123f18261238a565b604082019050919050565b60006020820190508181036000830152612415816123d9565b9050919050565b7f45524332305065726d69743a206578706972656420646561646c696e65000000600082015250565b6000612452601d83611cbf565b915061245d8261241c565b602082019050919050565b6000602082019050818103600083015261248181612445565b9050919050565b600060c08201905061249d6000830189611f33565b6124aa6020830188611ff2565b6124b76040830187611ff2565b6124c46060830186611e75565b6124d16080830185611e75565b6124de60a0830184611e75565b979650505050505050565b7f45524332305065726d69743a20696e76616c6964207369676e61747572650000600082015250565b600061251f601e83611cbf565b915061252a826124e9565b602082019050919050565b6000602082019050818103600083015261254e81612512565b9050919050565b7f4f776e61626c653a206e6577206f776e657220697320746865207a65726f206160008201527f6464726573730000000000000000000000000000000000000000000000000000602082015250565b60006125b1602683611cbf565b91506125bc82612555565b604082019050919050565b600060208201905081810360008301526125e0816125a4565b9050919050565b7f45524332303a20617070726f76652066726f6d20746865207a65726f2061646460008201527f7265737300000000000000000000000000000000000000000000000000000000602082015250565b6000612643602483611cbf565b915061264e826125e7565b604082019050919050565b6000602082019050818103600083015261267281612636565b9050919050565b7f45524332303a20617070726f766520746f20746865207a65726f20616464726560008201527f7373000000000000000000000000000000000000000000000000000000000000602082015250565b60006126d5602283611cbf565b91506126e082612679565b604082019050919050565b60006020820190508181036000830152612704816126c8565b9050919050565b7f45524332303a20696e73756666696369656e7420616c6c6f77616e6365000000600082015250565b6000612741601d83611cbf565b915061274c8261270b565b602082019050919050565b6000602082019050818103600083015261277081612734565b9050919050565b7f45524332303a207472616e736665722066726f6d20746865207a65726f20616460008201527f6472657373000000000000000000000000000000000000000000000000000000602082015250565b60006127d3602583611cbf565b91506127de82612777565b604082019050919050565b60006020820190508181036000830152612802816127c6565b9050919050565b7f45524332303a207472616e7366657220746f20746865207a65726f206164647260008201527f6573730000000000000000000000000000000000000000000000000000000000602082015250565b6000612865602383611cbf565b915061287082612809565b604082019050919050565b6000602082019050818103600083015261289481612858565b9050919050565b7f45524332303a207472616e7366657220616d6f756e742065786365656473206260008201527f616c616e63650000000000000000000000000000000000000000000000000000602082015250565b60006128f7602683611cbf565b91506129028261289b565b604082019050919050565b60006020820190508181036000830152612926816128ea565b9050919050565b7f4f776e61626c653a2063616c6c6572206973206e6f7420746865206f776e6572600082015250565b6000612963602083611cbf565b915061296e8261292d565b602082019050919050565b6000602082019050818103600083015261299281612956565b9050919050565b7f45524332303a206d696e7420746f20746865207a65726f206164647265737300600082015250565b60006129cf601f83611cbf565b91506129da82612999565b602082019050919050565b600060208201905081810360008301526129fe816129c2565b9050919050565b7f45524332303a206275726e2066726f6d20746865207a65726f2061646472657360008201527f7300000000000000000000000000000000000000000000000000000000000000602082015250565b6000612a61602183611cbf565b9150612a6c82612a05565b604082019050919050565b60006020820190508181036000830152612a9081612a54565b9050919050565b7f45524332303a206275726e20616d6f756e7420657863656564732062616c616e60008201527f6365000000000000000000000000000000000000000000000000000000000000602082015250565b6000612af3602283611cbf565b9150612afe82612a97565b604082019050919050565b60006020820190508181036000830152612b2281612ae6565b9050919050565b7f45524332305061757361626c653a20746f6b656e207472616e7366657220776860008201527f696c652070617573656400000000000000000000000000000000000000000000602082015250565b6000612b85602a83611cbf565b9150612b9082612b29565b604082019050919050565b60006020820190508181036000830152612bb481612b78565b9050919050565b600060a082019050612bd06000830188611f33565b612bdd6020830187611f33565b612bea6040830186611f33565b612bf76060830185611e75565b612c046080830184611ff2565b9695505050505050565b7f5061757361626c653a206e6f7420706175736564000000000000000000000000600082015250565b6000612c44601483611cbf565b9150612c4f82612c0e565b602082019050919050565b60006020820190508181036000830152612c7381612c37565b9050919050565b7f5061757361626c653a2070617573656400000000000000000000000000000000600082015250565b6000612cb0601083611cbf565b9150612cbb82612c7a565b602082019050919050565b60006020820190508181036000830152612cdf81612ca3565b9050919050565b6000608082019050612cfb6000830187611f33565b612d086020830186611eff565b612d156040830185611f33565b612d226060830184611f33565b95945050505050565b7f4e487b7100000000000000000000000000000000000000000000000000000000600052602160045260246000fd5b7f45434453413a20696e76616c6964207369676e61747572650000000000000000600082015250565b6000612d90601883611cbf565b9150612d9b82612d5a565b602082019050919050565b60006020820190508181036000830152612dbf81612d83565b9050919050565b7f45434453413a20696e76616c6964207369676e6174757265206c656e67746800600082015250565b6000612dfc601f83611cbf565b9150612e0782612dc6565b602082019050919050565b60006020820190508181036000830152612e2b81612def565b9050919050565b7f45434453413a20696e76616c6964207369676e6174757265202773272076616c60008201527f7565000000000000000000000000000000000000000000000000000000000000602082015250565b6000612e8e602283611cbf565b9150612e9982612e32565b604082019050919050565b60006020820190508181036000830152612ebd81612e81565b905091905056fea2646970667358221220b9643cd253eacd7869477fa245eb2593fde787a78f93c9070b39730d756be21a64736f6c63430008130033",
  "linkReferences": {},
  "deployedLinkReferences": {}
}